:020000040800F2
:10000000F8110020AD3A0008D1100008D310000804
:10001000D7100008DB100008DF1000080000000007
:10002000000000000000000000000000E3100008D5
:10003000E510000800000000E7100008E9100008C3
:10004000C73A0008C73A0008C73A0008C73A00088C
:10005000C73A0008C73A0008C73A0008C73A00087C
:10006000C73A0008C73A0008C73A0008C73A00086C
:10007000C73A0008C73A0008C73A0008C73A00085C
:10008000C73A0008C73A0008C73A0008C73A00084C
:10009000C73A0008C73A0008C73A0008C73A00083C
:1000A000C73A0008C73A0008C73A0008C73A00082C
:1000B0007D0F0008C73A0008C73A0008C73A000891
:1000C000C73A0008C73A0008C73A0008C73A00080C
:1000D000C73A000889080008A1080008C73A0008C4
:1000E000C73A0008C73A0008C73A0008DFF80CD042
:1000F00003F05EFD004800470D010008F8110020E4
:100100000020EC490870EC49087070478EB0FFF78A
:10011000F7FF01F089F901F09FF9E849086001F063
:1001200098F9E7490860E548006810B9E5A003F0D0
:100130007DFD01F001FE01F078FD01F0CDFC4FF4F2
:10014000E13001F0E1FB4FF4E13001F067FB4FF4E7
:10015000FA6001F027FE1421E0A003F067FD01F032
:1001600057FE002408E04FF47A7001F01BFE611C7A
:10017000E5A003F05BFD641C142CF4DBE3A003F0AA
:1001800055FDE3A003F052FD07E03146E6A003F081
:100190004DFD4FF47A7001F005FE00F0B0FF061E31
:1001A000F3D1E5A003F042FDE7A003F03FFD06E038
:1001B000E9A003F03BFD4FF47A7001F0F3FD00F08D
:1001C000ABFF0028F4D1E8A003F030FDEAA003F073
:1001D0002DFD06E0EDA003F029FD4FF47A7001F04B
:1001E000E1FD00F0F4FF0028F4D1ECA003F01EFDC7
:1001F00049E3002449E104EB840000EBC400AF496B
:10020000096801EB40100079022871D104EB8401E8
:1002100001EBC401A94A126802EB4111481D03F029
:100220008DFC824604EB840000EBC400A34A1268F4
:1002300002EB401053460168DC480268DCA003F082
:10024000F5FC04EB840101EBC4019C4A126802EB4B
:100250004111481D0822DEA103F085FC00287FD152
:10026000DEA003F0E3FC00BF04EB840101EBC4015A
:10027000924A126802EB411101F10E00062100F0D2
:10028000BAFF0746002F5EDD202106A803F039FCE7
:10029000142101A803F035FC04EB840000EBC4003A
:1002A0008649096801EB4010451D4FF00009C8461A
:1002B00020E028782C281CD109F10109B9F1060F9A
:1002C00017D16D1C6D1C06E0287806A901F80800FE
:1002D00008F101086D1C287828B128780D2802D073
:1002E00028782228F0D106A9C1A003F09FFC06E0DF
:1002F0004DE06D1C287810B128780D28D9D100BFA9
:10030000BA4607EBDA70421001A906A800F0B5FF63
:10031000064601A9B8A003F089FCBBA101A803F01F
:1003200014FC18B9B9A003F081FC0CE0BBA101A832
:1003300003F00BFC20B9BAA003F078FC03E00FE057
:10034000BBA003F073FCBEA2C0A1C348006801F0CB
:1003500010F906463246BDA1C0A003F067FC67E075
:1003600004EB840101EBC401544A126802EB411111
:10037000481D0A22BFA103F0F6FB002858D1C0A0F7
:1003800003F054FC4FF0FF30B349086050E004EB39
:10039000840000EBC4004949096801EB4010007972
:1003A00003280CD104EB840000EBC400434A12681C
:1003B00002EB40100168B6A003F038FC38E004EB13
:1003C000840000EBC4003D49096801EB401000794E
:1003D00004280CD104EB840000EBC400374A1268F7
:1003E00002EB40100168B0A003F020FC20E004EB19
:1003F000840000EBC4003149096801EB401000792A
:10040000052815D104EB840000EBC4002B4B1B68BE
:1004100003EB4010D0F89C2104EB840000EBC400F7
:10042000264B1B6803EB40100168A6A003F0FEFBFF
:1004300004EB840000EBC4002049096801EB401084
:10044000007908B304EB840000EBC4001B49096881
:1004500001EB40100079012816D0002004EB840144
:1004600001EBC401154A126802EB4111087104EB5B
:10047000840101EBC401114A126802EB4111481DCD
:100480004FF4C87103F03DFB641C0D4800688442C2
:10049000FFF6B1AE0748007858B14FF4FA6001F0AA
:1004A00081FC00208E4981F88F010A4601480178BD
:1004B00018E11DE10D0000201800002020000020A0
:1004C000240000206E6F742066696E642075736569
:1004D0007220707472210D0A00000000CFB5CDB3F8
:1004E000C6F4B6AF2CD0E8D2AAB5C8B4FD282564AE
:1004F00029C3EB2E2E2E2E2E2E2E2E2E2E2E2E2ECF
:100500002E2E2E2E2E0D0A00256420006F6B0A0061
:10051000312EB2E2CAD4CDA8D0C5CAC7B7F1D5FD35
:10052000B3A33F0D0A000000CDA8D0C5CAA7B0DC18
:100530003A25640A000000002020CDA8D0C5D5FDD2
:10054000B3A3A3A10D0A0000322EB9D8B1D5BBD8F0
:10055000CFD40D0A000000002020B9D8B1D5CAA719
:10056000B0DC210D0A0000002020B9D8B1D5B3C9F4
:10057000B9A6210D0A000000332EB5C8B4FDD7A2DC
:10058000B2E1CDF8C2E70D0A000000002020D7A29A
:10059000B2E1CAA7B0DC210D0A0000002020D7A2DA
:1005A000B2E1B3C9B9A6210D0A0000001000002075
:1005B000636D643A25732C72656365697665207393
:1005C0007563632C25642C6C656E3D25640A0A00F6
:1005D0002B434D515055423A00000000726563763E
:1005E0006569766520707562206D73670A0000008A
:1005F0006865783A25730A00746F706963206D73BB
:10060000673A25730A0000004F4E00006F6E206CA1
:10061000656420706C656173650A00004F46460092
:100620006F6666206C656420706C656173650A0096
:10063000756E6B6E6F77206D6573736167650A0009
:100640003533353534333433000000006C65645F76
:10065000726573756C7400001C0000207075622058
:10066000746F7069633C25733E2C207265743D2560
:10067000640A00002B434D51444953434F4E000040
:100680006D71747420626520636C6F7365640A0019
:10069000636D643A25732C726563656976652074B1
:1006A000696D656F75740A00636D643A25732C7209
:1006B000656365697665206F766572666C6F770A2B
:1006C00000000000636D643A25732C7265636569F0
:1006D0007665206572726F723A25640A0000000028
:1006E00000040020E6A003F0A1FA0020EF49087002
:1006F000EF480078312812D1EE49EFA003F096FAC6
:100700000020EB490870EFA1F0A000F0A7FE06461C
:10071000F2483246F2A10368F3A003F087FAE448F6
:100720000078322810D1F5A003F080FA0020E049CB
:100730000870F4A1E948006800F0E1FE0646324680
:10074000F0A1F2A003F072FAD948007833280FD153
:10075000F4A003F06BFA0020D5490870DF48006868
:1007600000F054FF06463246DDA1F0A003F05EFA29
:10077000CF48007834281AD1EEA003F057FA0020B1
:10078000CB49087041F288330122EFA1EFA001F0BC
:1007900033F9064636B1F0A003F048FAF549F6A061
:1007A00003F044FA3246CEA1F4A003F03FFAC04869
:1007B000007835281AD1F5A003F038FA0020BC499A
:1007C00008704FF47A730122DFA1F7A001F014F949
:1007D000064636B1F5A003F029FAE649E6A003F093
:1007E00025FA3246BEA1E5A003F020FAB048007811
:1007F000362811D10020AE490870F3A003F016FA94
:10080000F849F9A003F012FA4FF48061F54803F0BB
:1008100078F90020F9490860A548007837280CD1FC
:100820000020A3490870F6A003F000FA00F0F0FDE4
:1008300006463146F8A003F0F9F99D4800783828BB
:1008400021D100209A490870F8A003F0EFF90024A4
:100850000CE004EB840000EBC400FA4A126802EBDF
:1008600040100168F8A003F0E1F9641CF848006842
:100870008442EEDB0621F7A000F0BDFC06463146BF
:10088000FCA003F0D3F9B4E410B5FE4802F05AFF1F
:10089000C4B2302C03DD392C01DC8548047010BD56
:1008A0002DE9F041002400260025F74802F04AFF18
:1008B000C4B2CC48D14909684454D0480068401CAF
:1008C000CE49086008460068B0F5806F01DB002063
:1008D0000860EE480078012852D1A648EC49098802
:1008E0004454EB480088401CE949088008460088C9
:1008F000642801DB00200880E6480078022803D045
:10090000E4480078042820D10D2C0BD1E148007870
:10091000022803D0DF480078042803D10420DD49F1
:10092000087029E30A2C0CD1DA480078042808D191
:100930000520D84908700120D749087001F0B9FA9C
:100940001AE30220D349087016E30D2C0AD1D148CE
:10095000007818B1CF480078012803D10120CD4993
:10096000087009E30A2C07D1CA480078012803D18E
:100970000220C8490870FFE20020C6490870FBE267
:10098000C6480078032807D0C4480078042803D05C
:10099000C248007806286FD14648C14909684454C6
:1009A000BF480068401CBE49086008460068B0F5B2
:1009B000C87F4EDB0020BB49088033E0B94800887F
:1009C00000EB800101EBC0009E49096801EB40107B
:1009D0000079012821D10420B249098801EB810264
:1009E00002EBC101974A126802EB41110871AD494F
:1009F000098801EB810202EBC101924A126802EB05
:100A00004111481D40F28F122A4903F061F84FF45A
:100A1000C871284803F075F80AE0A2480088401C15
:100A2000A04908809F480088894909688842C5DB39
:100A300000BF9A480078062802D003201B4908709E
:100A40000020964908709649086090490870BDE8F2
:100A5000F0819548006800280FDD93480068401E2B
:100A60009149086091480068401E904908608E488E
:100A70000068002802DC1BE13CE266E164E1000062
:100A8000757263286E6F74207573657229207263A6
:100A90007620726573756C743A25642C7263765F88
:100AA000627566663A25730A000000000D0000209A
:100AB0000E00002000040020CAD5B5BD313A2573D0
:100AC0000D0A000031383833000000003230332E78
:100AD0003139352E3135322E313031001C000020B5
:100AE000726574203D200000257325642C736F63AC
:100AF0006B65743D25630D0A00000000CAD5B5BDC5
:100B0000320D0A006C65645F736574007375622052
:100B1000746F7069633C25733E2C207265743D25AB
:100B2000640A0000CAD5B5BD330D0A0025732564DB
:100B30000D0A0000CAD5B5BD342C207265736574EA
:100B4000206E6F770D0A00004F4B000041542B437D
:100B500052455345540000007265736574207265F8
:100B60007475726E204F4B2074696D656F757421BA
:100B70000A0000009C030020257300007265736565
:100B8000743A257325640D0A00000000CAD5B5BD6E
:100B9000352C207465737420636F6D6D756E696399
:100BA0006174650D0A00000041540000746573749F
:100BB0002072657475726E204F4B2074696D656F7D
:100BC0007574210A00000000CAD5B5BD362C20730B
:100BD000686F772064656275672062756666657206
:100BE0000D0A00009005002064656275672062753B
:100BF000666665723A25730A000000001400002042
:100C0000CAD5B5BD372C20646F2075736572206618
:100C1000756E630D0A000000757365722066756E4F
:100C200063207265743D25640A000000CAD5B5BD15
:100C3000382C2073686F7720757365722075726326
:100C40000D0A00002000002025730D0A000000009E
:100C500024000020312C226C65645F736574222CA3
:100C6000322C332C342C31323334352C223446346C
:100C700045220000616E616C79207265743D2564C7
:100C80000A00000000380140004400401800002025
:100C90000000002002000020030000200C000020C3
:100CA0000400002028000020080000201000002080
:100CB0000020E7490870E7490870E749088036E0F6
:100CC000E548008800EB800101EBC000E3490968BA
:100CD00001EB40100079012824D10221DE48008870
:100CE00000EB800202EBC000DC4A126802EB40100D
:100CF0000171DB4802F022FF0746D749098801EB62
:100D0000810202EBC101D54A126802EB4111481D74
:100D10003A46D34902F0DCFE4FF4C871D04802F0E5
:100D2000F0FE0AE0CC480088401CCB490880CA4845
:100D30000088CC4909688842C2DB00BF4FF45E706E
:100D4000C949086001F0B5F881E60D2C0BD1C04807
:100D50000078032803D0BE480078042803D104207B
:100D6000BB49087008E10A2C73D1B94800780428FF
:100D7000FAD10520B64908700020B74908808FE0F5
:100D8000B549098801EB810202EBC101B34A12683F
:100D900002EB4111086802F0D1FE0746AE48008818
:100DA00000EB800202EBC000AC4A126802EB40107C
:100DB0003A460168AA4802F0D6FEC0BB0020AB4903
:100DC00008600126A448008800EB800202EBC00006
:100DD000A24A126802EB4010D0F89811A048884748
:100DE00005462DBB02209C49098801EB810202EBDC
:100DF000C1019A4A126802EB41110871984802F049
:100E00009DFE07469449098801EB810202EBC1016E
:100E1000924A126802EB4111481D3A46904902F08D
:100E200057FE00208B49087001F043F82FE02FE0B7
:100E3000002D0FDD01208849098801EB810202EBBA
:100E4000C101864A126802EB4111087187480560AA
:100E50001DE04BE005208049098801EB810202EB8F
:100E6000C1017E4A126802EB411108717A4800887C
:100E700000EB800101EBC0007849096801EB4010EC
:100E8000C0F89C5100207349087001F012F80EE080
:100E900000207649086070480088401C6E49088030
:100EA0006D4800886F4909688842FFF669AF00BF46
:100EB0003EB16E480068002803DD062064490870D2
:100EC0005AE03EB100F0F5FF002061490870614929
:100ED000087051E000F0EDFF00205D49087001202E
:100EE0006349087000205B49087045E003205849B9
:100EF000087041E00D2C0ED15548007838B15448A7
:100F00000078012803D052480078022803D101203C
:100F10004F49087030E00A2C07D14D48007801286D
:100F200003D102204A49087026E02B2C21D14848E1
:100F3000007802281DD100204C4908600320444954
:100F4000087000204A4908704A49086000F0D0F84B
:100F5000434848490968445446480068401C45498C
:100F6000086002203B49087041F2883000F07FFFA2
:100F700002E000203649087000BF68E570B5012125
:100F8000880702F08AFA002860D00121880702F061
:100F900095FA00F08EFF2F480078012813D13649CA
:100FA00036A002F043FE4FF08040828C818D3AA043
:100FB00002F03CFE02203E49087000203D490870C6
:100FC0002449087042E03CA002F030FE00242CE0EE
:100FD00004EB840000EBC4002049096801EB4010D9
:100FE0000079012820D1032104EB840000EBC40028
:100FF0001A4A126802EB40100171194802F09EFD76
:10100000054604EB840101EBC401144A126802EBAB
:101010004111481D2A46124902F05AFD4FF4C87189
:101020000F4802F06EFD04E0641C0E480068844224
:10103000CEDB00BF0B480068844202DB02200C4973
:1010400008700020024908700249087070BD000055
:101050000C000020180000202800002020000020A4
:1010600000040020240000201000002008000020C0
:101070000D000020040000209C0300206D617374AB
:101080006572206D6F64652074696D656F75742E6F
:101090002E2E3A25730D0A006D61696E2C617272F5
:1010A0003A25642C636F756E743A25640A0000005B
:1010B0000300002002000020736C617665206D6FD4
:1010C00064652074696D656F75740D0A0000000019
:1010D000704700BFFEE700BFFEE700BFFEE700BFAE
:1010E000FEE770477047704710B500F07FFE10BDF7
:1010F00010B54FF4C871954802F003FD10BD10B54E
:101100004FF0FF344FF47A73032291A191A000F0C5
:1011100073FC0446204610BD10B54FF0FF34642325
:1011200003228BA18CA000F067FC0446204610BD72
:1011300010B5044621468A4802F0EEFC08B10120B1
:1011400010BD0020FCE770B50446002585480078F6
:1011500018B901208349087002E06FF0010070BDEA
:101160002EE081A000F038FC4FF4FA6000F07FFE22
:1011700000BF804800780028FBD07E4801787EA020
:1011800002F054FD681CC5B27A480078022803D1E9
:101190007FA002F04BFD13E000207649087083A089
:1011A000FFF7C6FF38B984A0FFF7C2FF18B985A0C2
:1011B000FFF7BEFF18B100206A490870CFE700BFF3
:1011C000A542CEDB002067490870401EC7E710B576
:1011D0000320FFF7B8FF0446204610BD002004E0BE
:1011E00000215F4A1154411C88B26428F8DB0021B9
:1011F000774A118070472DE9F04706460F464FF0B9
:10120000000935460024A04600BF34462AE028786D
:101210002C2826D109F10109B94521D113E0207804
:10122000302802DB2078392806DD6AA002F0FEFCB7
:101230006FF00100BDE8F0872078303808EB8801B6
:1012400000EB4108641C207840B120782C2805D0A0
:1012500020780D2802D020782228E0D14046E9E706
:101260006C1C6D1C287810B128780D28CFD15CA09B
:1012700002F0DCFC4FF0FF30DCE72DE9F0470446DC
:1012800089469046204602F059FC4FEA48018842C0
:101290000CD0204602F052FC82464246514656A0EF
:1012A00002F0C4FC4FF0FF30BDE8F087002547E0B6
:1012B0000027605D302806DB605D392803DC605D57
:1012C0000007070E14E0605D612807DB605D66289B
:1012D00004DC605DC01F0007070E09E0605D412867
:1012E00006DB605D462803DC605DC01F0007070E5B
:1012F0006E1CA05D302807DBA05D392804DCA05DF2
:1013000030383843C7B214E0A05D612807DBA05D28
:10131000662804DCA05D57383843C7B209E0A05DF9
:10132000412806DBA05D462803DCA05D3738384342
:10133000C7B2284605EBD071491009F80170AD1C01
:101340004FEA4800A842B3DC0020ADE700040020CB
:101350004F4B000041540000415445300000000054
:101360009C0300201800002041542B435245473F66
:10137000000000000300002073656E642063726546
:101380006720636D64205354413A25640A000000CD
:10139000776169742072656720726573706F6E7310
:1013A000652074696D656F7574210A002B43524581
:1013B000473A20302C3100002B435245473A203029
:1013C0002C3500002B435245473A20302C36000084
:1013D000000000206661756C7420706172610A0003
:1013E00063616E27742066696E642070726566653D
:1013F0007220706172610A006865782069732069E3
:101400006E76696C61643A25642C25640A000000DC
:1014100010B594A000F0E0FA002010BD01460020B5
:10142000704701460020704770B500250225002452
:101430000CE004EB840101EBC4018D4A02EB411185
:10144000481D4FF4C87102F05CFB641CAC42F0DB39
:1014500070BD00200220704785487047FEB50546E4
:101460000E466421834802F04CFB83A084A13346DE
:101470002A46CDE9001084A17E4802F0E7FB40F641
:10148000B833012287A17B4800F0B6FA07462FB196
:1014900087A002F0CBFB4FF0FF30FEBD89A18C4846
:1014A00002F03AFB044614B1607A8A49086064216C
:1014B000704802F026FB874800788DF8080000206D
:1014C0008DF80900642000F06DFC83A302AA86A1B8
:1014D000684802F0BBFB40F6B833012286A165489C
:1014E00000F08AFA07462FB184A002F09FFB6FF04C
:1014F0000100D2E787A002F099FB0020CDE7FEB5FE
:1015000004460D460026601C20B987A002F08EFB21
:10151000701EFEBDE0B28DF8080000208DF80900B5
:1015200030208DF8040000208DF80500642151481A
:1015300002F0E7FA01A82B4602AA81A100904D48CB
:1015400002F084FB41F2883301226BA1494800F08C
:1015500053FA064626B929467FA002F067FB06E04B
:10156000294682A002F062FB6FF00100D1E7002063
:10157000CFE72DE9FF4104460E4615464FF000081F
:10158000601C38B968A002F051FB4FF0FF3004B086
:10159000BDE8F081E0B28DF80C0000208DF80D0060
:1015A000284602F0CBFA502805D376A002F03EFB85
:1015B0006FF00100EBE764212E4802F0A2FA284602
:1015C00002F0BCFA074674A0334603AA74A1CDE921
:1015D00001750090274802F039FB41F2883301225F
:1015E00045A1244800F008FA8046B8F1000F04D164
:1015F000314673A002F01AFB06E0314675A002F0F6
:1016000015FB4FF0FF30C2E70020C0E738B50446B5
:101610000025E0B28DF8000000208DF80100642163
:10162000144802F06EFA6A4670A1124802F00EFBEE
:101630004FF4FA63012230A10E4800F0DDF90546AF
:101640001DB96EA002F0F2FA05E070A002F0EEFA09
:101650004FF0FF3038BD4FF0FF301E4908600020CA
:10166000F8E7000041542B434D514E45573F0000D1
:101670002C0000209009002031303234000000009E
:10168000363030300000000041542B434D514E4560
:10169000573D222573222C222573222C25732C25BD
:1016A000730000002B434D514E45573A0000000097
:1016B0006D71747420637265617465206572726FF8
:1016C00072210A002B434D514E45573A200000002D
:1016D0009C0300201C000020332C67756F79756E09
:1016E0002C38302C312C300041542B434D51434F7A
:1016F0004E3D25732C2573004F4B00006D717474A3
:1017000020636F6E6E656374206572726F72210A5A
:10171000000000006D71747420636F6E6E656374F9
:101720002073756363210A00736F636B65742069AE
:101730007320696E76616C6964202D310A000000A7
:1017400041542B434D515355423D25732C22257353
:10175000222C25730000000073756220746F70697D
:10176000633A25732073756363210A0073756220E1
:10177000746F7069633A2573206661696C656421D2
:101780000A0000006D7367206C656E6774682065E1
:1017900072726F720A000000312C302C3000000091
:1017A00041542B434D515055423D25732C222573F6
:1017B000222C25732C25642C222573220000000086
:1017C00070756220746F7069633A25732073756356
:1017D00063210A0070756220746F7069633A257323
:1017E000206661696C6564210A00000041542B4346
:1017F0004D51444953434F4E3D257300636C6F7305
:10180000652073756363210A00000000636C6F73C9
:1018100065206661696C6564210A000010B586B0B8
:101820000446012144F2040000F0DAFE944801F07D
:1018300049FE4FF40070ADF8140018208DF8170021
:1018400003208DF8160005A98E4800F00DFC4FF41A
:101850008060ADF8140004208DF8170005A98948B0
:1018600000F002FC01940020ADF80800ADF80A0079
:10187000ADF80C00ADF810000C20ADF80E0001A979
:101880007F4801F062FE25208DF8000002208DF8CF
:10189000010001208DF802008DF80300684600F079
:1018A0001AFB012240F22551754801F0E6FE0121A4
:1018B000734801F0D6FE4021714801F0BAFF06B02E
:1018C00010BD70B504460D46E1B26D4801F036FF1B
:1018D00000BF6B48008800F080000028F9D0204647
:1018E00070BD10B504460BE000BF4021644801F014
:1018F00093FF0028F9D014F8011B614801F01EFF86
:1019000020780028F0D110BD10B586B00446012122
:10191000480400F072FE0121042000F061FE5A48E4
:1019200001F0D0FD0420ADF8140018208DF8170048
:1019300003208DF8160005A9524800F095FB0820F9
:10194000ADF8140004208DF8170005A94D4800F0EB
:101950008BFB01940020ADF80800ADF80A00ADF84B
:101960000C00ADF810000C20ADF80E0001A946489F
:1019700001F0EBFD26208DF8000001208DF801001C
:1019800000208DF8020001208DF80300684600F069
:10199000A2FA012240F225513B4801F06EFE0121DE
:1019A000394801F05EFE4021374801F042FF06B0A1
:1019B00010BD10B504460BE000BF4021324801F0D5
:1019C0002BFF0028F9D014F8011B2F4801F0B6FEB8
:1019D00020780028F0D110BD10B50446FFF7FEFBBB
:1019E00000202A4908702A4908702046FFF7E1FFC5
:1019F00028A0FFF7DEFF10BD2DE9F04105460E4699
:101A000017461C464FF000082348007818B90120FB
:101A10002149087003E06FF00100BDE8F08128E083
:101A2000224629461DA002F001F9204600F01FFAC7
:101A30002846FFF7D1FF00BF144800780028FBD0EC
:101A400008F1010000F0FF0810480078022804D1D6
:101A5000184919A002F0EAF80BE000200B490870C1
:101A60003046FFF765FB18B100200B490870D4E73A
:101A700000BFB845D4DB002007490870401ECCE702
:101A800000380140000801400044004003000020ED
:101A9000020000200D0000001800002073656E6435
:101AA00020636D643A203C25733E203C743D2564E0
:101AB0003E0A00009C0300207761697420636D6416
:101AC00020726573706F6E73652074696D656F75D4
:101AD000743A25730D0A000008B50121042000F0B6
:101AE0007FFDF020ADF8000048208DF803000320B2
:101AF0008DF802006946484800F0B6FA08BD70B596
:101B000004460D462946204600F041FB90B90A20C4
:101B100000F048F92946204600F039FB40B900BFE3
:101B20002946204600F033FB0028F9D0002070BD84
:101B30000120FCE70120FAE770B5002400253648B3
:101B400000F02EFB0446102020EA0405A043B0B1AB
:101B5000012000F027F9304800F022FB0446102055
:101B6000A043002856D0102020EA040500BF2A48D0
:101B700000F016FB102181430029F8D14AE0202013
:101B8000A043B0B1012000F00DF9234800F008FB9C
:101B900004462020A04300283CD0202020EA040551
:101BA00000BF1D4800F0FCFA202181430029F8D134
:101BB00030E04020A043A8B1012000F0F3F816481F
:101BC00000F0EEFA04464020A04318B3402020EA7B
:101BD000040500BF104800F0E3FA402181430029CA
:101BE000F8D117E08020A043A0B1012000F0DAF87E
:101BF000094800F0D5FA04468020A04350B1802067
:101C000020EA040500BF044800F0CAFA802181439D
:101C10000029F8D1284670BD0008014010B54FF2E8
:101C2000F001444800F0CDFA10BD08B501210820AC
:101C300000F0D6FC4FF2F000ADF8000010208DF857
:101C4000030003208DF8020069463A4800F00CFAC0
:101C5000FFF7E4FF08BD10B51021364800F0B3FAD5
:101C600010BD10B51021334800F0ABFA10BD10B50F
:101C70002021304800F0A7FA10BD10B520212D48D2
:101C800000F09FFA10BD10B540212A4800F09BFAE1
:101C900010BD10B54021274800F093FA10BD10B5D3
:101CA0008021244800F08FFA10BD10B58021214812
:101CB00000F087FA10BD10B54FF480511D4800F0B8
:101CC00082FA10BD10B54FF480511A4800F079FA2D
:101CD00010BD10B54FF40051164800F074FA10BD55
:101CE00010B54FF40051134800F06BFA10BD10B559
:101CF0004FF480410F4800F066FA10BD10B54FF464
:101D000080410C4800F05DFA10BD10B54FF4004161
:101D1000084800F058FA10BD10B54FF400410548CE
:101D200000F04FFA10BD10B54FF2F001014800F07D
:101D30004AFA10BD000C014030B500BF30480068C1
:101D40004FF47A72B0FBF2F1B1F1807F01D3012040
:101D50001DE021F07F40401E4FF0E02250615017FF
:101D60000F22002807DA13071D0E264B00F00F0480
:101D7000241F1D5503E013071C0E234B1C5400BFEA
:101D800000204FF0E0229061072010610020002821
:101D9000D4D14FF0E020006920F001004FF0E021A5
:101DA000086130BD00BF194908604FF0E0210969A2
:101DB00041F001014FF0E022116100BF13490968B1
:101DC0000029FBD170474FF47A7141430F4A1160EB
:101DD0004FF0E021096941F001014FF0E02211616B
:101DE00000BF0A4909680029FBD17047074800680D
:101DF00020B106480068401E044908607047000092
:101E00008403002018ED00E000E400E06C030020F3
:101E10001FB50121084600F0F0FB42F20F70ADF84B
:101E2000080041F61F40ADF804000020ADF80A009C
:101E3000ADF8060001A94FF0804000F009FD1C201C
:101E40008DF8000001208DF801008DF802008DF85A
:101E50000300684600F03FF800220121880701F0E6
:101E60006EF800214FF0804001F04EF81FBD10B514
:101E7000044600214FF0804001F0DAFA04EB8400C0
:101E80000122C2EB400081B2900701F0D3FA082191
:101E9000C80601F0A9FA0121880701F00FFB012211
:101EA0001146900701F04BF80121880701F02CF84A
:101EB00010BD10B500220121880701F040F8002173
:101EC0004FF0804001F020F810BD0000314901437F
:101ED000314A1160704770B5002100230F22C47889
:101EE00004B32D4C246804F4E064C4F5E064210AD2
:101EF000C1F10403CA40447804FA03F18478144021
:101F000021430901254C0678A155047804F01F05EA
:101F10000124AC4005786D11AD0005F1E025C5F850
:101F2000004109E0047804F01F050124AC401C4D79
:101F30000678761145F8264070BD1A4A0A400243D9
:101F4000154B1B1F1A60704739B1134A121D1268D6
:101F50000243114B1B1D1A6006E00F4A121D126846
:101F600082430D4B1B1D1A607047042808D14FF0A7
:101F7000E021096941F004014FF0E022116107E01E
:101F80004FF0E021096921F004014FF0E0221161D6
:101F9000704700000000FA050CED00E000E400E0EE
:101FA00080E100E080FFFF1F10B50446CC4884426A
:101FB00008D10121042000F02DFB0021042000F0B5
:101FC00029FB46E0C748844208D10121082000F0DF
:101FD00021FB0021082000F01DFB3AE0C2488442AA
:101FE00008D10121102000F015FB0021102000F085
:101FF00011FB2EE0BD48844208D10121202000F0D1
:1020000009FB0021202000F005FB22E0B8488442B3
:1020100008D10121402000F0FDFA0021402000F00D
:10202000F9FA16E0B348844208D10121802000F07B
:10203000F1FA0021802000F0EDFA0AE0AE48844277
:1020400007D10121801500F0E5FA0021A01500F06C
:10205000E1FA10BD10B50121084600F0DBFA0021BD
:10206000012000F0D7FA10BD2DE9F041024600250D
:102070000026002000230024002791F803C00CF064
:102080000F0591F803C00CF0100CBCF1000F03D049
:1020900091F802C04CEA050591F800C0BCF1000FB0
:1020A00031D0146800202BE04FF0010C0CFA00F343
:1020B000B1F800C00CEA03069E4220D183004FF025
:1020C0000F0C0CFA03F7BC4305FA03FC4CEA0404BA
:1020D00091F803C0BCF1280F06D14FF0010C0CFAA7
:1020E00000FCC2F814C00AE091F803C0BCF1480F2C
:1020F00005D14FF0010C0CFA00FCC2F810C0401CD6
:102100000828D1D31460B1F800C0BCF1FF0F34DD52
:10211000546800202EE000F1080C4FF0010808FA86
:102120000CF3B1F800C00CEA03069E4221D18300F3
:102130004FF00F0C0CFA03F7BC4305FA03FC4CEA12
:10214000040491F803C0BCF1280F05D100F1080C7C
:1021500008FA0CF8C2F8148091F803C0BCF1480FDB
:1021600007D100F1080C4FF0010808FA0CF8C2F88A
:102170001080401C0828CED35460BDE8F0814FF693
:10218000FF710180022181700421C17070470246F5
:10219000002093680B400BB1012000E00020704745
:1021A0000146886880B2704702460020D3680B4021
:1021B0000BB1012000E0002070470146C86880B2E2
:1021C000704701617047416170470AB1016100E0E9
:1021D00041617047C16070474FF480320A438261A9
:1021E0008161826182698269704702460020434BA7
:1021F00018684FF68073184040EA021008433F4BBE
:10220000186070473E49C8617047F0B50A46002320
:1022100000240021002500F00046B6F1004F02D155
:10222000364EF16901E0354E7168C0F3034583B263
:1022300000F44016B6F5401F08D121F070612F4E12
:10224000766826F070662D4F7E6012E000F48016EE
:10225000B6F5801F06D1032606FA05F4A14341F026
:10226000706106E0460D360103FA06F6B14341F00F
:10227000706122B1460D360103FA06F6314300F0D3
:102280000046B6F1004F02D11C4EF16101E01B4E39
:102290007160F0BD30B500228B071C0F0F2303FACD
:1022A00004F2164B08338C1053F824309343134C2C
:1022B00008348D1044F8253023468C1053F8243010
:1022C0008C07240F00FA04F423430C4C08348D10BF
:1022D00044F8253030BD0A49DC3108607047000001
:1022E00000080140000C01400010014000140140B2
:1022F00000180140001C0140002001400000014086
:1023000000002042DF48006840F00100DD4908601D
:1023100008464068DC490840DA49486008460068D9
:10232000DA490840D74908600846006820F4802050
:1023300008600846406820F4FE0048604FF41F0023
:1023400088607047CF49096821F48031CD4A116017
:102350001146096821F480211160B0F5803F03D057
:10236000B0F5802F0ED106E0C649096841F48031EE
:10237000C44A116007E0C349096841F4A021C14A79
:10238000116000E000BF00BF704710B50146002299
:10239000002300204A11012A02D1BA4C236806E02A
:1023A000022A02D1B74C236A01E0B64C636A01F0FD
:1023B0001F02012494401C400CB1012000E00020C9
:1023C00010BD38B5002000900024002500BF31204A
:1023D000FFF7DBFF05460098401C00900098B0F521
:1023E000A06F01D0002DF2D03120FFF7CEFF08B151
:1023F000012400E00024204638BD01460020A14A07
:10240000106820F0F80040EAC10010607047A04951
:1024100008607047024600209A4B586820F47C10F0
:1024200042EA01031843974B586070479849086681
:10243000704701460020934A506820F0030008438B
:10244000506070478F48406800F00C0070470146AC
:1024500000208C4A506820F0F0000843506070471C
:1024600001460020874A506820F4E060084350602D
:10247000704701460020834A506820F4605040EACB
:10248000C1005060704729B17E4A527A02437D4BA9
:102490005A7204E07B4A527A82437A4B5A727047EE
:1024A0007B49D8310860704701460020754A506862
:1024B00020F440400843506070470021714A2032A8
:1024C0001170704A82F82010012802D004280AD125
:1024D00004E001216B4A2032117005E00521694AB0
:1024E0002032117000E000BF00BF704769490860EA
:1024F00070476449096A0143624A1162704765493D
:1025000044390860704730B50021002200240023C0
:102510005C4D6D6805F00C0121B1042905D0082936
:1025200023D105E05C4D056022E05B4D05601FE0B6
:10253000544D6D6805F47012524D6D6805F4803489
:10254000022505EB92421CB9544D554305600BE042
:102550004C4D6D6805F400351DB1504D5543056077
:1025600002E04D4D5543056002E04B4D056000BF54
:1025700000BF444D6D6805F0F0010909484D6B5CE2
:102580000568DD4045603F4D6D6805F4E061090A6E
:10259000434D6B5C4568DD4085603A4D6D6805F4E0
:1025A0006051C90A3E4D6B5C4568DD40C560354DE4
:1025B0006D6805F44041890B3A4D6B5CC568B5FB0D
:1025C000F3F5056130BD29B12E4A526902432D4B06
:1025D0005A6104E02B4A526982432A4B5A61704780
:1025E00029B1284A92690243264B9A6104E0254AA0
:1025F00092698243234B9A61704729B1214AD2697B
:102600000243204BDA6104E01E4AD26982431D4B2B
:10261000DA61704729B11B4AD2680243194BDA606C
:1026200004E0184AD2688243164BDA60704729B139
:10263000144A12690243134B1A6104E0114A1269E9
:102640008243104B1A617047124940390860704745
:102650000F49C86470470B49C87170470948406A00
:1026600040F0807007494862704701460020054AE3
:1026700092680A400AB1012000E000207047014939
:1026800088727047001002400000FFF8FFFFF6FE5E
:10269000000042428004424200127A0000093D00DC
:1026A000700300208003002010B50446FE488442D9
:1026B00008D10121C014FFF7ADFF0021E014FFF79E
:1026C000A9FFC4E0B4F1804F08D101210846FFF70B
:1026D000AEFF00210120FFF7AAFFB8E0F3488442D3
:1026E00008D101210220FFF7A2FF00210220FFF7FD
:1026F0009EFFACE0EE48844208D101210420FFF7A0
:1027000096FF00210420FFF792FFA0E0E9488442F1
:1027100008D101210820FFF78AFF00210820FFF7D8
:1027200086FF94E0E448844208D101211020FFF79D
:102730007EFF00211020FFF77AFF88E0DF48844207
:1027400008D101212020FFF772FF00212020FFF790
:102750006EFF7CE0DA48844208D101214014FFF783
:1027600059FF00216014FFF755FF70E0D5488442FF
:1027700009D10121C804FFF74DFF00214FF40020CB
:10278000FFF748FF63E0D048844209D101210805E2
:10279000FFF740FF00214FF48010FFF73BFF56E0AA
:1027A000CA48844209D101214805FFF733FF0021BF
:1027B0004FF40010FFF72EFF49E0C548844208D1CE
:1027C00001214020FFF733FF00214020FFF72FFFBA
:1027D0003DE0C048844208D101218020FFF727FF57
:1027E00000218020FFF723FF31E0BB48844208D15D
:1027F00001218015FFF71BFF0021A015FFF717FF30
:1028000025E0B648844209D101210804FFF702FF00
:1028100000214FF48030FFF7FDFE18E0B0488442FD
:1028200009D101214804FFF7F5FE00214FF40030E3
:10283000FFF7F0FE0BE0AB48844208D10121880489
:10284000FFF7E8FE00214FF48020FFF7E3FE10BD04
:1028500000220288944B98420ED0994B98420BD09C
:10286000B0F1804F08D0914B984205D0904B9842E0
:1028700002D0904B984204D14FF68F731A404B8888
:102880001A438D4B984207D08C4B984204D04FF698
:10289000FF431A40CB881A4302808B8883850B88BC
:1028A0000385814B98420BD0854B984208D08B4BC7
:1028B000984205D08A4B984202D08A4B984201D167
:1028C0000B7A038601238382704770B500240022AF
:1028D0000023058C4FF6FE7635400584028C8388F4
:1028E000048B4FF68F752C40B51E2C400D882C4361
:1028F000751E2A400D892A434D882A436A4DA842F5
:102900000BD06F4DA84208D0744DA84205D0744D2D
:10291000A84202D0734DA84213D14FF6F7752A4052
:102920004D892A434FF6FB752A408D882A434FF67E
:10293000FF652B404FF6FF552B408D892B43CD89EA
:102940002B4383800483CD888586028470BD70B557
:10295000002400220023058C4FF6EF7635400584D5
:10296000028C8388048B48F6FF752C404FF6FF4598
:102970002C400D884FF6FF7606EA05252C434FF6CE
:10298000DF752A400D8906EA05152A434D8806EAB7
:1029900005152A43444DA84202D0494DA8421DD1F5
:1029A0004FF67F752A404D894FF6FF7606EA0515EA
:1029B0002A434FF6BF752A408D8806EA05152A433B
:1029C0004FF6FF352B404FF2FF752B408D8906EAFD
:1029D00085052B43CD8906EA85052B438380048337
:1029E000CD880587028470BD70B5002400220023C5
:1029F000058C4FF6FF6635400584028C8388848BF6
:102A00004FF68F752C404FF6FC752C400D882C43EB
:102A10004FF6FF552A400D894FF6FF7606EA052549
:102A20002A434D8806EA05252A431F4DA84202D0B5
:102A3000234DA8421DD14FF2FF752A404D894FF614
:102A4000FF7606EA05252A434FF6FF352A408D8892
:102A500006EA05252A434EF6FF752B404DF6FF7515
:102A60002B408D8906EA05152B43CD8906EA05150D
:102A70002B4383808483CD888587028470BD70B5A5
:102A8000002200230024058C4EF6FF763540058495
:102A9000038C8488828B48F6FF752A404FF6FF45E9
:102AA0002A400D8820E00000002C01400004004076
:102AB00000080040000C00400010004000140040DE
:102AC00000340140004C01400050014000540140DE
:102AD00000180040001C0040002000400040014061
:102AE00000440140004801404FF6FF7606EA052504
:102AF0002A434DF6FF752B400D8906EA05352B4319
:102B00004D8806EA05352B43FA4DA84202D0FA4D0E
:102B1000A84208D14BF6FF752C408D894FF6FF7601
:102B200006EA85152C4384808283CD88A0F8405026
:102B3000038470BD828B4FF2FF331A408283828BF5
:102B40004FF6FF7303EA01231A4382837047F0B5FF
:102B50000C461546002200210026078C4EF6FF7C0D
:102B600007EA0C070784828B018C4FF6FF7707EA90
:102B7000043640F6FF473A404FF6FF7707EA05274D
:102B80003A434FF6FF7707EA03373A43D94FB84243
:102B90000ED0D94FB8420BD0B0F1804F08D0D74FEC
:102BA000B84205D0D64FB84202D0D64FB84206D16F
:102BB0004DF6FF77394046F48057394305E047F634
:102BC000FF57394044F48057394382830184F0BD74
:102BD000828B4FF6F3731A408283828B0A4382837F
:102BE0007047F0B50C461546002200210026078CE0
:102BF0004FF6FF6C07EA0C070784828B018C4FF6B7
:102C0000FF7707EA04264FF60C773A404FF6FF7736
:102C100007EA03172F433A43B64FB8420ED0B64FD8
:102C2000B8420BD0B0F1804F08D0B44FB84205D0B5
:102C3000B34FB84202D0B34FB84206D14FF6FF5758
:102C4000394046F48077394305E04FF2FF57394069
:102C500044F48077394382830184F0BD028B4FF2C4
:102C6000FF331A400283028B4FF6FF7303EA0123FE
:102C70001A4302837047F0B50C4615460022002126
:102C80000026078C4FF6EF7C07EA0C070784028BBF
:102C9000018C4FF6FF7707EA041640F6FF473A40EB
:102CA0004FF6FF7707EA03373A434FF6FF7707EA15
:102CB00005273A438F4FB8420ED08F4FB8420BD002
:102CC000B0F1804F08D08D4FB84205D08C4FB8423C
:102CD00002D08C4FB84206D14FF6DF77394046F02C
:102CE0001007394305E04FF65F77394044F010078D
:102CF000394302830184F0BD028B4FF6F3731A400F
:102D00000283028B0A4302837047F0B50C461546D6
:102D100000220021068C4FF6FE773E400684028B8F
:102D2000018C4FF60C7632407E1C06EA03162E43C9
:102D30003243704EB0420ED06F4EB0420BD0B0F165
:102D4000804F08D06D4EB04205D06D4EB04202D0DB
:102D50006C4EB04206D14FF6FD76314044F001068C
:102D6000314305E04FF6F576314044F0010631433A
:102D700002830184F0BD70B505460C465D4885426E
:102D80000ED05D4885420BD0B5F1804F08D05B482E
:102D9000854205D05A48854202D05A48854200D122
:102DA00000E000BF208850B92389A28861882846A6
:102DB000FFF7ABFFE1882846FFF79EFF25E020885C
:102DC00004280AD12389A28861882846FFF753FF87
:102DD000E1882846FFF742FF17E0208808280AD13B
:102DE0002389A28861882846FFF7FBFEE1882846F0
:102DF000FFF7EEFE09E02389A28861882846FFF7E5
:102E0000A6FEE1882846FFF795FE70BD2DE9F0414A
:102E100005460C4600260127608808B9022600E016
:102E20000026A088012801D1022700E00127208880
:102E3000A0B92389A28861882846FFF766FFE18848
:102E40002846FFF759FF23893A4631462846FFF7BF
:102E500012FFE1882846FFF701FF13E02389A288CB
:102E600061882846FFF707FFE1882846FFF7F6FE4E
:102E700023893A4631462846FFF747FFE18828462E
:102E8000FFF73AFFBDE8F0810A884B881A438B8828
:102E90001A43CB881A430B891A434B891A438B89EF
:102EA0001A43A0F8442070474FF6FF71818000213B
:102EB0000180C18041800172704700210180418002
:102EC0008180C180018141818181C1817047002160
:102ED00001804180012181800021C18001817047F2
:102EE0000021018041808180C180018141818181F7
:102EF00070470000002C01400034014000040040F5
:102F000000080040000C004021B1028842F001029C
:102F1000028004E002884FF6FE731A400280704778
:102F200031B1B0F8442042F40042A0F8442005E05A
:102F3000B0F84420C2F30E02A0F8442070471AB142
:102F400083890B43838102E083898B4383817047AC
:102F50008182704741EA0203A0F8483070471AB1F5
:102F600083890B43838102E083898B43838170478C
:102F700001894FF6F8721140018170470A4600211D
:102F800001894FF68F73194011430181704730B5A5
:102F900004460D4629462046FFF7F0FF208940F001
:102FA0000700208130BD2DE9F04104460D4616464C
:102FB0001F46602D06D13B46012231462046FFF7D1
:102FC0005AFE05E03B46012231462046FFF79DFEB2
:102FD00029462046FFF7D2FF208940F007002081D4
:102FE000BDE8F08130B50C4600210189C9B24FF629
:102FF000FF7505EA0325154325432943018130BDAB
:103000002DE9F04105460E461746984600244346F2
:103010003A4631462846FFF7E5FF2C894FF6F8700F
:10302000044044F007044FF68F70044044F07004ED
:103030002C81BDE8F081F0B504460D4616461F46CA
:103040003B46324629462046FFF7CCFF208940F414
:1030500080402081F0BD0185828270470A460021B0
:1030600001884FF68F731940114301807047F0B506
:103070000C4615461E460021002200230189028BC2
:10308000038C4FF6F877394021434FF6FC473A401E
:1030900040F201173A434FF6DD773B404FF6FF779A
:1030A00007EA06172F433B43018102830384F0BDE7
:1030B0000A460021018B4FF68F731940114301839B
:1030C00070470A460021018B48F6FF7319404FF6FE
:1030D000FF7303EA02231943018370470A46002164
:1030E000818B4FF68F7319401143818370470A46D5
:1030F0000021818B48F6FF7319404FF6FF7303EAF6
:10310000022319438183704721B1028842F0800273
:10311000028004E002884FF67F731A4002807047F5
:1031200021B1828842F00402828004E082884FF656
:10313000FB731A408280704721B1828842F00802F6
:10314000828004E082884FF6F7731A4082807047CD
:1031500021B1828842F00102828004E082884FF629
:10316000FE731A40828070470A460021018B4FF699
:10317000F77319401143018370470A460021018B00
:103180004FF2FF7319404FF6FF7303EA022319430E
:10319000018370470A460021818B4FF6F77319406F
:1031A0001143818370470A460021818B4FF2FF73E0
:1031B00019404FF6FF7303EA0223194381837047D6
:1031C0000A460021018B4FF6FB731940114301831E
:1031D00070470A460021018B4FF6FF3319404FF626
:1031E000FF7303EA02231943018370470A46002153
:1031F000818B4FF6FB7319401143818370470A4658
:103200000021818B4FF6FF3319404FF6FF7303EA1D
:1032100002231943818370470A460021018B4FF630
:103220007F7319401143018370470A460021018BC7
:10323000C1F30E014FF6FF7303EA02231943018322
:1032400070470A460021818B4FF67F731940114366
:10325000818370470A460021818BC1F30E014FF62E
:10326000FF7303EA02231943818370470A46002152
:10327000018C4FF6FD7319401143018470470A46D3
:103280000021018C4FF6F7731940114301847047F8
:103290000A460021018C4FF6DF7319404FF6FF7389
:1032A00003EA02131943018470470A460021018C86
:1032B0004FF67F7319404FF6FF7303EA0213194369
:1032C000018470470A460021018C4FF6FF531940D4
:1032D0004FF6FF7303EA02231943018470470A463D
:1032E0000021018C4FF2FF7319404FF6FF7303EA80
:1032F00002231943018470470A460021018C4DF6D0
:10330000FF7319404FF6FF7303EA02331943018438
:10331000704730B5002301248C40A3B2048C9C4339
:103320000484048C02FA01F5ADB22C43048430BD50
:1033300030B5002304248C40A3B2048C9C43048445
:10334000048C02FA01F5ADB22C43048430BD70B593
:103350000346002000241846183001258D40ACB2E9
:103360001D8CA5431D8409B1082909D100EB61001A
:10337000056825F0700505600568154305600EE0D9
:103380000D1FC5F34E052844056825F4E04505608A
:1033900005684FF6FF7606EA02263543056070BDE4
:1033A00021B1028842F00202028004E002884FF656
:1033B000FD731A400280704721B1028842F0040276
:1033C000028004E002884FF6FB731A4002807047C7
:1033D00021B1828842F08002828004E082884FF628
:1033E0007F731A408280704702884FF6F7731A4045
:1033F000028002880A430280704782884FF68F73EA
:103400001A40828082880A438280704702894FF680
:10341000F8731A40028102890A43028170470289C7
:103420004FF67F731A40028102890A430281704776
:103430008184704781857047818670470187704716
:1034400081877047A0F84010704702884FF6FF430D
:103450001A40028002880A43028070470146888E23
:1034600070470146088F70470146888F70470146B4
:10347000B1F8400070470146888C70470146088DBE
:10348000704702460020138A0B400BB1012000E078
:1034900000207047CA430282704730B502460020C0
:1034A00000230024158A05EA0103958905EA010431
:1034B00013B10CB1012000E0002030BDCA430282EC
:1034C0007047000010B50446FB48844209D1012131
:1034D0008803FFF79FF800214FF48040FFF79AF828
:1034E00032E0F648844209D101214804FFF79FF8F1
:1034F00000214FF40030FFF79AF825E0F0488442AD
:1035000009D101218804FFF792F800214FF48020AF
:10351000FFF78DF818E0EB48844209D10121C80477
:10352000FFF785F800214FF40020FFF780F80BE04B
:10353000E548844208D101210805FFF778F8002109
:103540004FF48010FFF773F810BD2DE9F04786B0F7
:1035500005460E460024A24600BFA1460027B089BA
:1035600000B100BF2F462C8A4CF6FF700440F08853
:1035700004432C82AC894EF6F3100440B0883189A4
:103580000843718908430443AC81AC8A4FF6FF407D
:103590000440B0890443AC8201A8FEF7B4FFC648DA
:1035A000874202D1DDF810A001E0DDF80CA0A88967
:1035B00000F4004040B10AEBCA0000EB0A10316889
:1035C0004900B0FBF1F807E00AEBCA0000EB0A1073
:1035D00031688900B0FBF1F86420B8FBF0F0040119
:1035E0002009642101FB1089A88900F4004040B142
:1035F000322000EBC900B0FBF1F000F007000443FB
:1036000008E0322000EB09106421B0FBF1F000F07B
:103610000F0004432C8106B0BDE8F0874FF416512B
:10362000016000218180C18001810C214181002144
:103630008181704710B502460020108A4FF2FF03C7
:1036400018400B884C8823438C882343CC88234321
:103650001843108210BD0021018041808180C1800B
:10366000704721B1828942F40052828104E082894C
:103670004DF6FF731A4082817047F0B5034600246F
:1036800000260025002040F66A17B94200D100BF8D
:103690001846C1F3421401F01F06012707FA06F588
:1036A000012C01D10C3004E0022C01D1103000E0DB
:1036B00014301AB107682F43076002E00768AF4370
:1036C0000760F0BD1AB1838A0B43838202E0838ACC
:1036D0008B4383827047028A4FF6F0731A4002824E
:1036E000028A0A430282704782894FF2FF731A40AE
:1036F000828182890A438281704721B1828942F0A6
:103700000202828104E082894FF6FD731A408281B1
:103710007047028A4FF6DF731A400282028A0A4318
:103720000282704721B1028A42F48042028204E0A0
:10373000028A4BF6FF731A4002827047C1F30802F7
:103740008280704701468888C0F3080070478189ED
:1037500041F0010181817047028BD2B20283028B5A
:1037600042EA012202837047028B02F47F42028305
:10377000028B0A430283704721B1828A42F0200201
:10378000828204E0828A4FF6DF731A408282704799
:1037900021B1828A42F01002828204E0828A4FF6CE
:1037A000EF731A408282704721B1828A42F0080288
:1037B000828204E0828A4FF6F7731A408282704751
:1037C00021B1828942F40042828103E08289C2F3FE
:1037D0000E028281704721B1828A42F400628282A5
:1037E00004E0828A4FF2FF731A4082827047828A15
:1037F0004FF6FB731A408282828A0A4382827047A4
:1038000021B1828A42F00202828204E0828A4FF66B
:10381000FD731A408282704702460020B1F5007F96
:1038200000D100BF13880B400BB1012000E0002045
:10383000704701F40072B2F5007F00D100BFCA43A7
:103840000280704770B50246002400230025002046
:1038500040F66A16B14200D100BFC1F3421501F033
:103860001F03012606FA03F3012D02D19689334086
:1038700006E0022D02D1168A334001E0968A3340D9
:103880000C12012606FA04F41688344013B10CB168
:10389000012000E0002070BD10B50022002340F69A
:1038A0006A14A14200D100BF0A1201249440A3B2BD
:1038B000DC43048010BD000000380140004400409B
:1038C00000480040004C0040005000400CB5002073
:1038D000019000906C48006840F480306A490860AC
:1038E00000BF6948006800F4003000900198401C57
:1038F0000190009818B90198B0F5A06FF1D1624815
:10390000006800F4003010B10120009001E00020B8
:1039100000900098012843D15C48006840F01000F6
:103920005A4908600846006820F00300086008460D
:10393000006840F0020008605348406852494860FF
:103940000846406848600846406840F48060486027
:103950000846406820F47C1048600846406840F4FF
:10396000E81048600846006840F08070086000BFBA
:103970004548006800F000700028F9D042484068CF
:1039800020F00300404948600846406840F00200CB
:10399000486000BF3C48406800F00C000828F9D19E
:1039A0000CBD10B5FFF792FF10BD10B5364800688A
:1039B00040F0010034490860084640683449084036
:1039C0003149486008460068324908402E4908607D
:1039D0000846006820F4802008600846406820F40B
:1039E000FE0048604FF41F008860FFF7DAFF4FF0D9
:1039F00000602949086010BD10B500210020002298
:103A0000214B5B6803F00C0121B1042906D0082981
:103A100028D107E0214B224C236027E01F4B204C8C
:103A2000236023E0184B5B6803F47010164B5B684F
:103A300003F48032022303EB904022B9194B434335
:103A4000174C23600DE0104B5B6803F4003323B187
:103A5000144B4343124C236003E0104B4343104C80
:103A6000236003E00D4B0E4C236000BF00BF064BEC
:103A70005B68C3F303130C4CE15C094B1B68CB4040
:103A8000074C236010BD00000010024000200240DF
:103A90000000FFF8FFFFF6FE08ED00E000127A00DC
:103AA0008403002000093D00880300200648804769
:103AB00006480047FEE7FEE7FEE7FEE7FEE7FEE713
:103AC000FEE7FEE7FEE7FEE7AB390008ED00000881
:103AD00040EA01039B0703D009E008C9121F08C090
:103AE000042AFAD203E011F8013B00F8013B521E10
:103AF000F9D27047D2B201E000F8012B491EFBD287
:103B000070470022F6E710B513460A4604461946E8
:103B1000FFF7F0FF204610BD30B505462A460B469C
:103B200012F8010B13F8014B08B1A042F8D01CB1F8
:103B3000002802D06D1CF1E7284630BD421C10F869
:103B4000011B0029FBD1801A704710B5002200E04C
:103B5000521C835C8C5CA34201D1002BF8D1D8B2FB
:103B6000E1B2401A10BD30B505460020034600E022
:103B70005B1C934205D2EC5CC85C201A01D1002C7E
:103B8000F6D130BD30B50B4601460020202201247D
:103B900009E021FA02F59D4205D303FA02F5491B1B
:103BA00004FA02F52844151EA2F10102F1DC30BD31
:103BB000064C074D06E0E06840F0010394E807007A
:103BC00098471034AC42F6D3FCF794FA703E0008E4
:103BD000903E000870B58C1810F8015B15F00703D3
:103BE00001D110F8013B2A1106D110F8012B03E096
:103BF00010F8016B01F8016B5B1EF9D12B0705D49E
:103C00000023521E0DD401F8013BFAE710F8013BE6
:103C1000CB1A921C03E013F8015B01F8015B521E02
:103C2000F9D5A142D8D3002070BD00000FB4054BD8
:103C300010B503A9044A029800F02CF810BC5DF8F6
:103C400014FB0000C3180008980300200FB4084BB1
:103C500010B504A902AA039800F01CF8044602A9B2
:103C6000002000F0F3F8204610BC5DF814FB0000C3
:103C70004D3E000802E008C8121F08C1002AFAD110
:103C800070477047002001E001C1121F002AFBD1DC
:103C9000704700002DE9FF4F8BB09A460F4605464E
:103CA000002606E025280BD052460D9990476D1C42
:103CB000761C28780028F5D10FB03046BDE8F08F8B
:103CC0000024A0460122604900E0044315F8013FAA
:103CD000203B02FA03F00842F7D128782E2817D1AA
:103CE00015F8010F44F004042A280ED06FF02F02BB
:103CF0002878A0F1300109290AD808EB880102EBE5
:103D0000410100EB01086D1CF2E757F8048B6D1CB4
:103D1000287869283ED006DC0028CDD063280BD057
:103D2000642804D136E0732810D075284BD0524651
:103D30000D999047761C85E017F8040B8DF800006C
:103D400000208DF80100E946012003E057F8049BAC
:103D50004FF0FF3061074FF0000401D40AE0641C0B
:103D600044450DDA8442FADB19F804100029F6D133
:103D700006E0641C8442FCDB19F804100029F8D129
:103D8000264404E019F8010B52460D999047641E31
:103D9000F8D257E001CF4FF00A0B002802DA404278
:103DA0002D2102E0210504D52B218DF824100121BD
:103DB00003E0E10705D02021F7E70DF12009089184
:103DC0000CE00021F9E701CF4FF00A0BF9E7594663
:103DD000FFF7D8FE01F1300209F8012D0028F6D1D5
:103DE000ADEB090000F1200B600701D44FF0010892
:103DF000D84502DDA8EB0B0000E00020804600243F
:103E000006E009A85246005D0D999047641C761C97
:103E100008988442F5DB04E0302052460D99904723
:103E2000761CB8F10001A8F10108F5DC05E019F8ED
:103E3000010B52460D999047761CBBF10001ABF186
:103E4000010BF4DC6D1C34E7092801000A68531CDF
:103E50000B601070704700002B434D515055423A93
:103E6000000000002B434D51444953434F4E000086
:103E7000903E0008000000209C030000D43B000896
:103E8000C83E00089C0300205C0E0000843C000833
:103E9000011C1AFF01C113583E02FF080195131DB2
:103EA0001442084B643E0801FF0191132314C20819
:103EB0002D0102030404100906070809020406087C
:083EC000ACA24A041C291841C0
:04000005080000ED02
:00000001FF
